:020000040001F9
:1060000000400020919F0100A39F0100A59F010077
:106010000000000000000000000000000000000080
:10602000000000000000000000000000A79F010029
:106030000000000000000000A99F0100AB9F0100CC
:10604000AD9F0100AD9F01002DB70100AD9F010084
:10605000AD9F0100000000000DB50100AD9F0100E3
:10606000AD9F0100AD9F0100AD9F0100AD9F0100FC
:10607000AD9F0100AD9F0100AD9F0100AD9F0100EC
:10608000AD9F0100D5B50100AD9F0100AD9F01009E
:1060900085B60100AD9F01003D8C0100AD9F010060
:1060A000AD9F0100AD9F0100000000000000000056
:1060B00000000000000000000000000000000000E0
:1060C00000F002F800F041F80CA030C8083824189D
:1060D0002D18A246671EAB4654465D46AC4201D120
:1060E00000F033F87E460F3E0FCCB6460126334211
:1060F00000D0FB1AA246AB4633431847808A000003
:10610000A08A00000023002400250026103A01D3B5
:1061100078C1FBD8520700D330C100D50B6070475F
:1061200010B5752902D104F06DF810BD002010BD26
:106130001FB5C046C0460098019905F02CF804F040
:106140008DFA1FBD002006F0BBFA06F0E9FA1146F1
:10615000FFF7EEFF05F0D1F906F0B2FC401E00BFDC
:1061600000BF00BF00BF00BF00BF00BF00BF00BF37
:1061700000BF00BF00BFF1D170470000401E00BF4C
:1061800000BF00BF00BF00BF00BF00BF00BF00BF17
:1061900000BF00BF00BFF1D170470000401E00BF2C
:1061A00000BF00BF00BF00BF00BF00BF00BF00BFF7
:1061B00000BF00BF00BFF1D17047000070B50546B9
:1061C0000C46164602E00FCC0FC5103E102EFAD238
:1061D000082E02D303CC03C5083E042E07D301CCFE
:1061E00001C5361F03E021782970641C6D1C761EE2
:1061F000F9D270BD08B5684600F0A1FB01F0D9F8EE
:1062000001E001F0F2F9FCE7016044220271002292
:1062100042717047FEB504460D4674A000680290B6
:10622000012069000090022302AA206801F0E4FF27
:10623000064600206A00511C0090032301AA206832
:1062400001F0A7FF0643002E04D1206802F005F8F4
:10625000002801D10020FEBD0120FCE710B5044656
:106260006079012800D110BD6079022801D1002099
:10627000F9E744212046FFF7CDFF002801D0012097
:1062800000E002206071607902280BD14521204690
:10629000FFF7C0FF002801D0012000E0022060715C
:1062A000452020716079012800D1DCE70020DAE781
:1062B0007CB504464EA00068019001200090227930
:1062C0005100022301AA206801F096FF0546002D27
:1062D00001D001207CBD0020FCE77CB5044645A030
:1062E000006801900120009022795100022301AA48
:1062F000206801F081FF0546002D01D001207CBD02
:106300000020FCE7F0B585B004460D461646002097
:10631000009022795200511C062303AA206801F044
:1063200038FF02900298002802D0012005B0F0BD8D
:106330006846007B00280DD16846407B002809D1C3
:106340006846C07BFF2805D16846007CFF2801D144
:106350000120EBE76846417B007B000201430F46CA
:10636000394664225143AF2251430846224904F082
:106370007DF82249471A6846007C6946C97B0902B4
:1063800008430190642201995143514308461A4938
:1063900004F06CF8019038B23080019800B2288087
:1063A0000020C3E7FEB506460C46154602AA01A921
:1063B0003046FFF7A7FF0746002F01D00120FEBDA2
:1063C00069460820085E04F08FFD0D49009004F036
:1063D00079FC286069460420085E04F085FD0849C0
:1063E000009004F06FFC20600020E8E7F32D00002F
:1063F0002416000024000000FFFF0000941100009C
:106400000000C842FEB504460D46102006F020F9F3
:1064100002230290EB560122AA560021695602F08F
:1064200075FA0290206003220821206802F097FA92
:10643000206802F04BFB182006F00AF906460327F5
:106440000190EF57182103F0D9FF3946304606F086
:106450008FFB00BF01966660182006F0F9F806462B
:1064600004270090EF57182103F0C8FF3946304643
:1064700006F06CFB00BF0096A6600027A6683946B0
:10648000304606F021FC00BF0121606805F075FE72
:106490002046FEBD10B503460C335B5CC14CA45CCA
:1064A000234304460C34635410BD00B50B0006F0C2
:1064B000E3F80D0D12171C21262B30353A3F084406
:1064C0004900027D08231A4302753CE0027D042343
:1064D0001A43027537E0027D02231A43027532E047
:1064E000027D01231A4302752DE0C27C10231A435A
:1064F000C27428E0C27B10231A43C27323E0427D9A
:1065000080231A4342751EE0427D40231A434275A0
:1065100019E0427D20231A43427514E0427D08238E
:106520001A4342750FE0427D10231A4342750AE078
:10653000027D10231A43027505E0027D88231A4369
:10654000027500E000BF00BF00BD02460C32525C85
:1065500010231A4303460C335A547047FFB583B0D7
:1065600015461E4600200290019004988006040EF5
:10657000002D05D0E01C401BC1B20398FFF7E5FFDA
:106580008948864200DD064687484042864200DA56
:106590000646002E02DA0120019076427D21C900D4
:1065A000304603F071FFC7B2002F04D102980028D3
:1065B00001D1032D15DB019800280BD00498002889
:1065C00001D1012000E0022001460398FFF76DFF92
:1065D00000200190E1B23A460398FFF75BFF0120EB
:1065E00002907D21C900304603F04EFF0E46642123
:1065F000304603F049FFC7B2002F04D102980028AB
:1066000001D1022D11DB0198002806D0E1B213223E
:106610000398FFF73FFF00200190601CC1B23A468B
:106620000398FFF737FF012002906421304603F002
:106630002BFF0E460A21304603F026FFC7B2002F7B
:1066400004D10298002801D1012D12DB0198002805
:1066500007D0601CC1B213220398FFF71BFF002074
:106660000190A01CC1B23A460398FFF713FF012026
:1066700002900A21304603F007FFCFB201980028AC
:1066800005D0A01CC1B213220398FFF703FFE01C42
:10669000C1B23A460398FFF7FDFE07B0F0BD70B5F2
:1066A00006460C4615462B46224600213046FFF78B
:1066B00055FF70BD70B506460C4615462B46224662
:1066C00001213046FFF74AFF70BD70B504462068CF
:1066D00002F0FBF90021606805F04FFD00BFA568DE
:1066E00000BF00BF00BF00BF00BF00BF0020285692
:1066F000401C04D12C222D492DA006F0ECFA00BF3D
:10670000686900686968084201D0012000E0002043
:106710000028E4D0217B206802F022F9A075617B7B
:10672000206802F01DF9E075022507E022460C32D0
:10673000515D206802F014F9681CC5B20A2DF5DB22
:106740000121606805F019FD206802F0BFF970BDF5
:106750000146002005E000230A460C321354421C77
:10676000D0B20A28F7DB7047827D0A70C27D4A707A
:10677000704770B504460D4600BF00202056401CEF
:1067800004D1242209490AA006F0A5FA00BF002D71
:1067900003D0E1686068086002E021696068086011
:1067A00070BD00009CD801000F270000B4D8010084
:1067B0006F626A2D3E70696E20213D202850696EFF
:1067C0004E616D65294E43001CB5002168468180ED
:1067D0002021418010210180FF21F531C1806A46CE
:1067E000FE480188FE48006805F0A0FE3C20FD49F7
:1067F00008701CBD10B50446FA480078401C40B231
:10680000F849087008460078002801D0012C01D111
:10681000FFF7DAFF10BD1CB5002168468180192101
:1068200049014180C32189000180FF21F531C180E8
:106830006A46EA480188EA48006805F077FE1CBD10
:1068400010B5E8480078401E40B2E6490870084696
:106850000078002805D1FFF7DEFF0120C043E149A1
:10686000087010BD10B50446DF48006805F0A8FDAB
:10687000002807D0DB4800214156002902DD3C20DA
:10688000D8490870D74800214156002909DDD6486B
:10689000006805F095FD002803D1002C01D1FFF719
:1068A000CFFFD04800214156002905DACE480068C4
:1068B00005F086FD002801D1012C02D12046FFF70A
:1068C00099FF10BD10B50446C64800214156002965
:1068D00003DD3C20C349087002E00120FFF7C2FF3E
:1068E00010BDF0B585B00446BD4803AE056801A8EB
:1068F0000090286802685168884707460068436826
:1069000031463846009A98476846007920706846B4
:106910004079607068468079A07000202071E07036
:106920006846407AE0716846007AA0716846C0798E
:10693000607105B0F0BD0220AC4908607047F1B548
:106940008EB0642005F084FE0646354602F02AFD2E
:1069500028600023A0221946281D03F02DFA051FE8
:106960002846103003F068FA0546103D28463830B6
:1069700003F062FA0546383D012160204155284662
:10698000103003F0CAFA2846383003F0C6FA00BFC8
:106990002E4693480560006803F0DCFA502005F0AD
:1069A00057FE0D9001F074FC8F490D9008601C207B
:1069B00005F04EFE04468E4905F099FC044621463A
:1069C0008948006801F07EFC0C2005F041FE0C9027
:1069D000834801680C9801F0C3FA86490C9008605E
:1069E0001C2005F035FE04467F4A834B11680CCB12
:1069F00004930392049B039A029301924160029BC9
:106A0000019AC36082607D4A82610022026000BFF9
:106A100000BF21467748006801F0CFFA012005F059
:106A200017FE0B906E4801680B9801F068F87449E6
:106A30000B9008600321012001F069FA0C2005F099
:106A400007FE0C220B210A9001F0E2FA6D490A9030
:106A50000860082005F0FCFD09906A480168099863
:106A6000FFF7D2FB68490990086005A8FFF739FFD6
:106A7000D320800005F0ECFD089064A0644965A275
:106A800065A3019302920391049066A068A305AAEE
:106A9000009053480168089805F0FEF9684908908D
:106AA0000860802005F0D4FD0790664864230090BC
:106AB000504802684A480168079805F017F862498B
:106AC0000790086050480068FFF7C8FB00283FD0D7
:106AD0001320400105F0BCFD0546464802684048C9
:106AE0000168284604F012FF0546584805608420D6
:106AF00005F0AEFD0746564803683E480268384830
:106B00000168384605F066F8074652480760842059
:106B100005F09EFD049050480368364802683048EE
:106B20000168049805F06AF94C49049008604948E6
:106B300001682D48006801F0B5FB484801682A4803
:106B4000006801F0AFFB30480068FFF7C6FB00BFEC
:106B50000E980FB0F0BD08B501F05BF92048006851
:106B600005F05FFD0090C007C00F03D01C4800680F
:106B700005F09BFC1A48006805F053FD0090800763
:106B8000C00F09D000211648006805F083FC1321CE
:106B90001348006805F070FC08BDF0B587B0304AB6
:106BA0000023304903C903F059FA00210846514037
:106BB000584001437ED10C48006805F001FC0028D4
:106BC00078D101F068F906462748007803F04BFFBA
:106BD0000446264A264B03F049FF4BE05220002092
:106BE00000200020512000200820002054200020F8
:106BF0003769010004200020FCD8010095D5010070
:106C0000282000202020002024200020302E3100C9
:106C100004D90100310000003030303030303030E5
:106C200000000000536D6172744761646765740011
:106C300053656E736972696F6E20414700000000F2
:106C40000C200020C56801001C2000201820002016
:106C50005C2000201020002058200020142000205C
:106C6000307500003020002064200020CDCCCCCC3A
:106C7000CCCCEC3F03910290304603F0F4FE044686
:106C8000FD4AFE4B03F0F2FE01910090039B029A35
:106C900003F06FFE0591049003F098FEC6B2F84829
:106CA000007886421FDAF6480670F648006805F05C
:106CB000B8FC00E024E005908007C00F13D0F24834
:106CC0000468EF48007805902046083000BF07466A
:106CD00005F089FC0546012305AA2946606801F0F4
:106CE00046F900BF00BFE64800780A2801DC01F041
:106CF000CEF8E3480078002801D1FFF72CFF00BF51
:106D000007B0F0BD70B504460D46E0480078002895
:106D100012D000BFDE48006806463146DD480068F4
:106D200004F047FF00BFDC48006806463146DB48F8
:106D3000006805F052F809E02146D648006804F0E2
:106D400038FF2946D548006805F047F870BDF8B50A
:106D500004460D46CB48006805F063FC00908007B0
:106D6000C00F2BD0CE48006805F02AFB00280CD0BD
:106D70007D2252010023CB4903C903F06FF90021A2
:106D8000084651405840014303D129462046FFF7A9
:106D9000B9FF7D2252010023C24903C903F05EF905
:106DA0007D20C0005040184301D1032000E00120A5
:106DB00006463146BC48006801F021F9F8BDFEB531
:106DC0000020009001AA02A9B8480068FFF7EAFA7B
:106DD000002827D1B648006804F056FD0023044679
:106DE0002246B04903C903F039F900214A404B401B
:106DF0001A430DD1A748029A0168A948006801F01A
:106E0000C2FAA648019A0168A548006801F0BBFAD9
:106E100001990298FFF79BFF00220199029800F068
:106E20000EFE0090A248006804F02EFD06460027E2
:106E30009F48006804F028FD002304462246994933
:106E400003C903F00BF9B21A9F417D20C0005040E6
:106E5000384302D00098002807D194480068FFF713
:106E60003CFA00208949087006E090480068FFF766
:106E70001FFA012085490870FEBD08B58D480078CD
:106E8000002809D101208B49087000F020FF7D48BF
:106E9000006805F016FB1DE000208649087000F030
:106EA0004AFF7848006805F0BCFB0090C007C00F9F
:106EB00003D07448006805F0F8FA7248006805F0DD
:106EC000B0FB00908007C00F04D013216D4800680C
:106ED00005F0D2FA08BD10B500F095FE002801D0EB
:106EE000FFF7CBFF10BDF8B50746FFF7F4FF6F487B
:106EF0000068FFF7B3F9002801D0FFF760FFFFF744
:106F00004CFE6048006805F08CFB00908007C00FC5
:106F100028D000216448006801F053F80020FFF7F2
:106F2000A1FC6548006800281CDD63480068401E1D
:106F30006149086008460068002813D15C4804686D
:106F4000002000902046FF30713000BF064605F05B
:106F50004AFB054601236A462946606801F007F8A6
:106F600000BF00BF4F48016840687D23DB0000225E
:106F7000C91850414B4A11605060F8BD7CB54C486F
:106F8000046800210191012100912046FF307130F9
:106F900005F030FB05466B4601AA2946206805F03E
:106FA000D5FA68460079002803D03D48006801F012
:106FB000F5FA7CBDFEB507463D48006804F064FC68
:106FC00004467D21C900204603F050FA641A002CC3
:106FD00001D17D24E4003648056801942846FF303D
:106FE000E93005F007FB064600200090042301AAC3
:106FF0003146286805F0BCFA00BF2948006801F056
:107000000EFB0021274A116051602C4A116051602B
:10701000FEBDF0B589B006462548006804F04AFC7C
:1070200004460D462248006804F05AFC0791069079
:10703000234903C9001BA94101D2214830C82A466F
:1070400007990698201A8A4101D2079D069C1C4880
:1070500001684068091BA841324600230291039051
:107060000846039902F0FAFF0021B01A99410591F0
:1070700004900498704025E09A9999999999B93F9C
:1070800064200020002000201C2000205020002030
:1070900080200020102000208420002014200020C8
:1070A0000820002030200020042000202420002080
:1070B000182000202C200020542000203820002000
:1070C000482000200599084301D1014601E00599B7
:1070D00004982A46241A8A41154622462B46FC4823
:1070E000006804F0ADFBFB4801684068091BA8413B
:1070F00032460023029103900846039902F0AEFF46
:1071000007463946F448006801F06DF92A460799A8
:107110000698201A8A410192009032460023019974
:1071200002F09CFF02460B4603910290EA48006879
:1071300001F08FF909B0F0BD70B588B00646E4489B
:10714000006804F0CDFB04460D46E148006804F0F9
:10715000B1FB07910690E14903C92A46201A8A41EA
:1071600001D2DE4830C807990698001BA94101D218
:10717000079D069CD94806C82846611A90413246A8
:107180000023029103900846039902F067FF002153
:10719000B01A9941059104900498704005990843EC
:1071A00001D1014601E00599049804194D41224698
:1071B0002B46C748006804F055FB07990698001B4A
:1071C000A941324600230191009002F047FF024698
:1071D0000B4603910290C048006801F03AF908B0EC
:1071E00070BDF0B585B00446BD4903C9BD4A03C2B0
:1071F000B7480568002002900390082001902818E5
:1072000005F0F8F9064601AB02AA3146286805F0F8
:107210009DF9039F029E22460023B24903C902F052
:107220001DFFB01A9F41AB4981C10839002209C92D
:10723000801A934102DA0020014601E0A54903C902
:10724000A44A03C2A448006801F0DBF86043014689
:107250000022A04803684068591A90419F4A116073
:10726000506010460021036842680846591A82415E
:1072700002DA0020014601E0984903C9974A03C297
:1072800094480CC89248006804F0DAFA93480CC895
:107290008F48006804F0E6FA8F48006801F08BF828
:1072A0008C48036840688D490A6849689A1A884181
:1072B00002920390224600230399029802F096FE60
:1072C00005462A460B468448006801F0C2F805B01E
:1072D000F0BD70B504467E48006804F0D5FA064655
:1072E0007B4805682846083005F084F921888842E3
:1072F00002D13046FFF775FF754805682846803093
:1073000005F078F92188884202D13046FFF714FF52
:107310006F4805682846F83005F06CF921888842E6
:1073200002D13046FFF775FE694805682846FF30F0
:10733000E93005F05FF92188884202D13046FFF735
:1073400039FE634805682846FF30713005F052F970
:107350002188884201D1FFF711FE70BD10B50446A7
:1073600001216148006800F02CFE10BDF8B504460C
:107370000D4616461F465D4804803C205C49087057
:1073800000F092FBF8BD70B504460D465048006809
:1073900004F010FA5048006801F020F955480078D0
:1073A000002803D05448006805F08BF800F07CFBFF
:1073B00070BDFEB551495048006805F06BF84E4865
:1073C0004F4C066830680268516888470746FC6081
:1073D00000BF00BF48484B4C06683068026891689F
:1073E00088470746BC6000BF00BF4348464C06685C
:1073F00030680268916888470746214638460C3055
:1074000006F08EF800BF00BF3B4806260468012145
:107410006020015531462046103002F06CFD364A9E
:10742000002011680A1D107100BF00BF324A1920E8
:10743000C00111680A1DD08000BF00BF2E4833A6CE
:10744000046820680268516888470746006831462A
:10745000426A38469047284809262CA7046810201D
:1074600000900121602001553A46314620463830CF
:10747000009B02F0FBFC6321C90068468180652106
:10748000C900C18000210181FF21F53141811A48E5
:1074900001AE0468206802685168884707460068A2
:1074A0003146C269384690470B48006800F039FF02
:1074B00000BF00201A4B022201210090FF2005F09E
:1074C00073F9044600BF2646002E31D000BF29E0E4
:1074D0001820002048200020082000204020002004
:1074E00030200020382000200420002052200020DE
:1074F000512000202C200020002000208773010054
:107500006D7301005D730100D3720100536D6172F0
:10751000742048756D6967616467657400000000D8
:10752000B821002035A27721304601F0BFFE00BF10
:1075300000BF00BF374A0121374805F009F9002292
:1075400080213548006805F0E1F900F049FC002889
:1075500005D032480068FEF781FE00281FD100F0F8
:1075600075FC2F48006805F05CF80090C007C00F5C
:1075700003D02B48006804F098FF2948006805F004
:1075800050F800908007C00F09D0002124480068FF
:1075900004F080FF13212248006804F06DFF00F022
:1075A0007AFC0546002D1FD100F033FC1C48006812
:1075B00005F037F80090C007C00F03D018480068E6
:1075C00004F073FF1648006805F02BF80090800760
:1075D000C00F09D000211248006804F05BFF13219E
:1075E0000F48006804F048FFFEBD10B50C48046861
:1075F00020680268D169884700BF10BD736F75723B
:1076000063655C536D6172744761646765742E6372
:1076100070700000E76E0100602000202420002030
:1076200000200020F3B587B03B49089805F0DAFF49
:1076300008900021089806F01BF801D2002008905D
:107640003649089806F096F801D234480890344933
:10765000079806F037F8019003F00AFC80B2069014
:107660002F48089906F02EF8019003F001FC86B22D
:107670000698C7B206980412B105890D0591B51296
:10768000681CA421484327494118601C8000095800
:10769000681CA4225043234A8018A2008058081A6C
:1076A00078434109681CA42250431E4A8018A20056
:1076B0008058C00009180291A42068431949411854
:1076C000601C80000958A4206843164A8018A20054
:1076D0008058081A78434109A4206843114A801849
:1076E000A2008058C0000818039003998BB2039A37
:1076F00002998A1A05994A439101090C59180A4AB4
:10770000881A03F0F1FB0649019003F0DBFA0490BC
:10771000049809B0F0BD0000000048420000484352
:107720000000C84208D901001027000070B5FE49CA
:10773000FE48006805F0C6FF0646FD4903F0C2FAA0
:1077400005462121490605F04DFF0446F94920462A
:1077500006F010F80ED82146F74805F0B3FF0646AC
:1077600003F060FB05462A460121F4480068FEF755
:10777000A1FF0DE02146EF4805F0A4FF064603F007
:1077800051FB05462A460221EC480068FEF792FFAD
:107790000A21EA480068FEF788FE70BD70B5E3482C
:1077A0000168E44805F08EFF054603F03BFB044604
:1077B00022460221E1480068FEF77CFF0921DF48EC
:1077C0000068FEF772FE70BD10B5DD480078002835
:1077D00002D0FFF7E3FF01E0FFF7A8FF10BD70B58F
:1077E000D449D848006805F06DFF054603F01AFB40
:1077F000044622460221D1480068FEF750FF0621C8
:10780000CE480068FEF751FE70BDF8B5C748016864
:10781000CC480068FFF706FF0746C34905F052FF52
:107820000646C34903F04EFA05462121490605F0F4
:10783000D9FE0446BF49204605F09CFF0ED82146DC
:10784000BD4805F03FFF064603F0ECFA05462A4620
:107850000121BA480068FEF722FF0DE02146B54835
:1078600005F030FF064603F0DDFA05462A46022100
:10787000B2480068FEF713FF0821B0480068FEF721
:1078800014FEF8BD70B5A9480168AE480068FFF75E
:10789000C9FE0646A74905F015FF054603F0C2FAE2
:1078A000044622460221A5480068FEF7F8FE07219B
:1078B000A2480068FEF7F9FD70BD10B5A248007837
:1078C00000280ED09E480078002802D0FFF7DAFF8B
:1078D00001E0FFF79AFF042198480068FEF7E5FDF4
:1078E00001E0FFF77CFF10BD08B500219348006858
:1078F000FEF7DBFD95480078002804D003218F486F
:107900000068FEF7D2FDFFF7D8FFFFF75DFF904854
:10791000006804F086FE00908007C00F05D00B21A0
:1079200086480068FEF7C1FD0CE08948006804F055
:1079300078FE0090C007C00F04D00C217F4800687B
:10794000FEF7B3FD08BDF8B505460C468148007842
:107950000F2805D101208049087000207D4908705A
:1079600078480168284605F031FF074604F063FEB9
:1079700006467F21C90505F07BFE0DD96B480168DD
:10798000204605F023FF074604F055FE06467F21FA
:10799000C90505F06DFE05D86E480078401C6D499C
:1079A000087002E000206B4908700120F8BDF8B5AE
:1079B00005460C46002667480078401C654908705B
:1079C000084600780F2802D10126002008705D4883
:1079D0000168284605F0FAFE009004F02CFE0746E8
:1079E0007F21C90505F0C6FE0DD350480168204629
:1079F00005F0ECFE009004F01EFE07467F21C9054D
:107A000005F0B8FE04D200205349087051490870AF
:107A10003046F8BD70B505460E4600244E48007845
:107A2000002805D031462846FFF7C1FF044304E093
:107A300031462846FFF787FF0443204670BD70B5E6
:107A400005460E4614464548007800280CDD43489C
:107A50000078401E4149087008460078002801D18E
:107A6000012401E0002070BD31462846FFF7D2FF17
:107A70000443002C0DD0334805602C4806602F4885
:107A80000068FEF765FEFFF72FFF2C480068FEF741
:107A90001CFE304800780E2801D0012000E00020B4
:107AA0002D4909780840DEE710B501221F4801681A
:107AB00024480068FFF7C3FF10BD10B528480078C0
:107AC00000280ED00020264908701F4800780121A8
:107AD00048401D49087021480078002801D1FFF76F
:107AE000E3FF10BD10B51F48FEF738FB1E480069C4
:107AF0008005C00F02D101201949087010BDF3B5EF
:107B000087B00F4612480760582004F0A1FD0921F4
:107B1000069004F0A9FB069003900321039804F05B
:107B200074FB039822E00000000010418420002034
:107B30000000A0400000C842000020416820002052
:107B40008820002080200020892000209020002014
:107B5000782000208B2000208C2000208D20002009
:107B60008A200020102700000005005004F052FB7E
:107B7000002801D0012000E00020E74908700C2017
:107B800004F066FD059004F0B7FBE4490590086039
:107B9000402004F05DFD0446402102F02FFC264603
:107BA0003546284604F0FEFA0546DD4800212860E7
:107BB0002846203004F09BFB0646203ED948344638
:107BC0003060D9480660D949039804F00AFBD849C7
:107BD000039804F035FB02216846C171032141710D
:107BE000052101710021017201218171182004F029
:107BF0002FFD01A90490FEF705FCCE490490086012
:107C0000079809B0F0BDCC480078002804D0CA48D5
:107C10000078401CC8490870C7480078032804D180
:107C20000020C5490870012070470020FCE7FEB520
:107C3000C24802AD6E4604682068026851688847F1
:107C4000074600683246294643683846984700216F
:107C5000B8480068FEF729FC10220021B5480068EA
:107C6000FEF718FC0F220121B2480068FEF712FC53
:107C700011220221AF480068FEF70CFC12220321FA
:107C8000AC480068FEF706FC684640780211042103
:107C9000A8480068FEF7FEFB684640780207120F0E
:107CA0000521A4480068FEF7F5FB6846007802113C
:107CB0000621A0480068FEF7EDFB68460078020741
:107CC000120F07219B480068FEF7E4FBFEBD10B5CC
:107CD00006209B49087097480068FEF739FDFFF7BA
:107CE000A6FF94480068FEF7F0FC10BD10B5002117
:107CF00090480068FEF7D9FB102200218D480068EB
:107D0000FEF7C8FB0F2201218A480068FEF7C2FB7C
:107D10001122042187480068FEF7BCFB0F220521D1
:107D200084480068FEF7B6FB0F22062181480068F0
:107D3000FEF7B0FB10BD10B50320814908707D48E7
:107D40000068FEF705FDFFF7D1FF7A480068FEF7EF
:107D5000BCFC10BD01460878002802D148780028F4
:107D600007D00878FF2802D14878FF2801D00120E9
:107D700070470020FCE708B500216E480068FEF758
:107D800094FB69466B480068FEF7EEFC6D4802788C
:107D9000012168480068FEF77DFB6B4802780221EC
:107DA00064480068FEF776FB684602780521614862
:107DB0000068FEF76FFB6846427806215D48006860
:107DC000FEF768FB01215B480068FEF7BEFB05215A
:107DD00058480068FEF7B9FB6846FFF7BBFF08BDCF
:107DE00010B554480068FEF7B3FC52480068FEF72F
:107DF0006CFC0120524908704E480068FEF7A8FC50
:107E0000FFF7B9FF04464B480068FEF75EFC2046CA
:107E100010BD00B597B0092101A804F025FA454826
:107E20000068FEF795FC002142480068FEF73DFB24
:107E3000032140480068FEF738FB3E480068FEF723
:107E400044FC01A804F036FA17B000BD10B539485B
:107E50000068FEF77DFC002136480068FEF725FB30
:107E60000E22012133480068FEF714FB1022022184
:107E700030480068FEF70EFB102203212D480068F1
:107E8000FEF708FB2B480068FEF71FFC10BD012021
:107E90002E490870704770B52D480078002805D02D
:107EA00000202B49087018202A49486001202949E0
:107EB00008602949086000BF284800680028FBD0F6
:107EC0000020264908602348806884B24B210901BC
:107ED00061430846FF2102F0D7FA4100401884B2FE
:107EE00000201C49086001201B4948604B204001CC
:107EF000844201DA002002E04B204001201A85B2C2
:107F00000621284602F0C0FA85B2E8B270BD0D4ADB
:107F100010700D4A11707047882000206C200020DE
:107F20001CEB010030EB010070200020E57A01001D
:107F3000BB7A0100682000208A20002078200020E1
:107F40008D2000208E2000208F20002090200020F7
:107F5000912000200075004000700040007100403A
:107F60000160002242600272072242727047FFB530
:107F700085B004460D461646207A072802D1002017
:107F800009B0F0BD207A401C207220680290089849
:107F9000039000200490029A106802689168884754
:107FA000019004980090019800688768324629463D
:107FB000039B0198B8470120E2E7002900D0416007
:107FC0007047F8B504460D46012D01D1607A00E0F6
:107FD0000720074600260FE0207A002805D16068B8
:107FE000002802D0606804F071F9207A002802D0DD
:107FF000207A401E2072761CBE42EDDBF8BD0729B8
:1080000001DD002201E00722521A4272704700008F
:1080100010B50170427005231B07072424021B19A9
:1080200094001B19436005231B07072424021B1916
:108030008C001B19836000234468236084682360DC
:1080400010BD00218268116000BF00BF00BF002189
:108050004268116000BF00BF00BF70470321826803
:10806000116000BF00BF00BF00214268116000BF67
:1080700000BF00BF00218268116000BF00BF00BFC9
:108080007047F8B504460E4600270020A168086036
:10809000072512E000BF00BF00BF00BF00BF00BF48
:1080A000002061680860205600F0E9F8A8403843D5
:1080B000C7B20320616808606D1E002DEADA002E49
:1080C00003D00320A168086002E00020A1680860D6
:1080D00000BF00BF00BF002061680860204604F0B8
:1080E00049F8204604F046F8204604F043F80320FF
:1080F000616808600020A16808603846F8BDF8B5DE
:1081000004460E4607251BE00320616808603046E0
:108110002841C007C00F03D10320A168086002E016
:108120000020A168086000BF00BF00BF0020616898
:10813000086000BF00BF00BF204604F01BF86D1EA2
:10814000002DE1DA0320616808600020A168086062
:10815000204604F00FF8002061680860205600F007
:108160008EF8002801D0012000E0002007460320FF
:10817000616808603846F8BD03218268116000BF5D
:1081800000BF00BF03214268116000BF00BF00BFF5
:108190007047FFB581B00F4614461D460198FFF7A2
:1081A000EBFF0120384301460198FFF7A8FF0028A4
:1081B00001D0012000E000200090002605E0012110
:1081C0000198FFF75EFFA055761C681EB042F6DCF2
:1081D00000210198FFF755FFC1B2681E21540A988B
:1081E000002803D10198FFF739FF02E00198FFF75B
:1081F00028FF009805B0F0BDFFB581B00D461646CA
:108200001F460198FFF7B8FFFE202840014601985D
:10821000FFF775FF002801D0012000E0002000904A
:1082200000240BE0315D0198FFF769FF00990843D6
:1082300001D0012000E000200090641CBC42F1DB72
:108240000A98002803D10198FFF708FF02E001987F
:10825000FFF7F7FE009805B0F0BD10B5044600200A
:10826000205600F00CF8002805D00120205600F020
:1082700006F8002801D1002010BD0120FCE70146CE
:1082800002480069C840C007C00F70470005005091
:1082900000210160002244210A544C210A544D213E
:1082A0000A5470474C22125C002A0AD14422125C04
:1082B0009300021DD1504422125C521CD3B24422BE
:1082C0001354704701607047FEB505460E461446CC
:1082D0002046704380300190701E01994018009034
:1082E000182004F0B5F90746009A019900F0BEF98C
:1082F0000746A10028460C3047500021A200083054
:108300008150A20028308150A20008388150A2007C
:1083100008388150A20008388150A20008388150E6
:10832000FEBD70B504464420005D002816DD4C20DB
:10833000005D002812D14420015D812002F0A4F8E4
:108340000646002505E02A4631462046FFF7BCFFD9
:108350006D1C4420005DA842F5DC00BF01214C20CB
:10836000015570BD10B50246002006E08400131DC3
:108370001B598B4200D110BD401C44239B5C83429F
:10838000F4DCB948F7E7F8B504460F461646394617
:108390002046FFF7E7FF0546B34885420AD0AA000A
:1083A00021460C318858314600F06FF9AA00214669
:1083B00014318850F8BD10B5014600200EE083004E
:1083C0000A461432D358840010321351002384001B
:1083D00008321351840008321351401C4422525C6D
:1083E0008242ECDC10BD10B50A46002104E08C008E
:1083F00003462C331A51491C44231B5C8B42F6DC88
:1084000010BDF8B504460026002700251BE0AA0091
:1084100021460C31885800F0ACF9AA0021461431ED
:108420008958884206D2AA0021460C31885800F0AB
:10843000A0F903E0A9002046143040580746B7428F
:1084400000D93E466D1C4420005DA842DFDC30466A
:10845000F8BD30B5002104E08D000446343462518B
:10846000491C4424245C8C42F6DC30BDF0B589B054
:1084700004460D46002600272CE0B90005A8081880
:10848000AA00009020461C308058AA0023463C33A6
:108490009A58811AAA00303B98580A46002300F0E7
:1084A00026F9002800D117E0701CC6B2A9002046AA
:1084B0003C304058401CAA0021463C318850A9005D
:1084C000204634304158AA0008308058814200D1FB
:1084D00002E07F1C042FD0D3002E19DDA900204616
:1084E0003C304058801B401C0490B000001DC0B2BE
:1084F000029008990798AA0001910090211D8858C0
:10850000AA00895809680F6804A90EC9B84706E08F
:10851000A900204634304158AA000830815009B0E3
:10852000F0BD70B504464D20005D002800D170BD3F
:10853000002500200CE0820021463C318A58AB0027
:10854000C9588A4201D2014600E02946CDB2401CFA
:108550004421095D8142EEDCA900204634304158B7
:10856000AA0008308058814204D929462046FFF7E6
:108570007DFF11E000214D200155002005E0002283
:10858000830021463C31CA50401C4421095D814290
:10859000F5DC206803F09AFE00BFC8E710B504467A
:1085A0004D20005D002818D100BF0CE0820021465C
:1085B00024318A5883000831C958521A8300214651
:1085C0001C31CA50401C4421095D8142EEDC01216E
:1085D0004D2001552046FFF7A4FF10BD10B54D21D9
:1085E000095C01291AD1002111E000238C00024608
:1085F0003C3213518C00083A13518C00083A135145
:108600008C00083A13518C00083A1351491C44223B
:10861000125C8A42E9DC00224D210A5410BD70B57B
:10862000044600251AE00021AA002046143081509B
:10863000AA0020308150AA0008308150AA002038BA
:108640008150AA0008308150AA0008308150AA0049
:1086500021460C31885800F094F86D1C4420005DD0
:10866000A842E0DC70BD0000FFFF000070B50446CA
:108670000D461646256066600020A060002121613D
:10868000616100F085F8204670BDF8B504460D46DE
:1086900020898005800D13D1A068800A21684018C8
:1086A0006168884201D90020A060A168890A206819
:1086B000461800221146304600F0D9F800BF00BF2E
:1086C00021688902A06846182A463146002000F039
:1086D000CEF800BFA068001DA060616908460023B5
:1086E0002269561C5841266160611046F8BDF0B5FC
:1086F0001FB488B00446236962690A990B98C91AA5
:10870000904102D300200DB0F0BD21686068401A8E
:10871000800280080026276963690B9A0A99791AF2
:108720009341401A9E4101D20020ECE72168606825
:10873000401A401C8602042200210A9D0B980692D2
:10874000059107902846059B079901F037FC3246B2
:1087500000230191009001F081FC029220688102C7
:10876000029808180290029801681298016001208E
:10877000C9E701460A684868801A401E80028008DE
:108780007047002202614261002181607047000051
:10879000002005E0FF210201584BD2185170401C07
:1087A0000528F7DBFF20564908700020554908705E
:1087B000704753480078FF283AD00120514908708B
:1087C0004F48007800014D4940184078002813D0E8
:1087D00001281CD100BF4A4A12781201474BD21817
:1087E00011460C31464A12781201D21890680122C3
:1087F00021DF1128EFD00BE000BF414909780901C2
:108800003E4A8918486820DF1128F6D000E000BFF2
:1088100000BFFF203A4909780901384A8918487091
:108820003748007800011146085C3549087002E0BD
:108830000020344908707047014631480078FF280D
:1088400002D12F48017011E02D4A107808E0020192
:108850002A4B9A5CFF2A00D103E00201274B985C67
:10886000F5E700BF0201254B995400BF7047F7B5EB
:1088700007460D4624480078042801D1002002E074
:1088800021480078401CC4B200262EE020011B497C
:1088900040184078FF281CD11B480470002D01D0DF
:1088A000012000E000202101144A891848702001AD
:1088B0001146401885602001401847602101891841
:1088C0000298C860FF20210150542046FFF7B4FFF2
:1088D0000CE0042C01D1002000E0601CC4B2701C2C
:1088E000C6B2052E01D100BFFEE7CFE700BF0548A5
:1088F0000078002801D1FFF75CFFFEBDD0220020E8
:10890000932000209220002094200020F8B50446F7
:108910000D4616461F4625706670A7700120A840B8
:1089200060600120B040A0600120B840E0600020FD
:10893000205600F0CCF80220205600F0C8F80120A4
:108940002056002100910099890005221207072373
:108950001B02D2188300D15000BF2046F8BD7047DB
:1089600070B504460D4600266149E068C860802065
:10897000054202D06068886002E05D496068C860B6
:108980006D005B49E06888600120205600F0A8F87F
:10899000064376005649E068C8608020054202D050
:1089A0006068886002E052496068C8606D005049A4
:1089B000E06888600120205600F092F806437600B7
:1089C0004B49E068C8608020054202D0606888603A
:1089D00002E047496068C8606D004549E06888600A
:1089E0000120205600F07CF8064376004049E068FC
:1089F000C8608020054202D06068886002E03C497F
:108A00006068C8606D003A49E068886001202056BF
:108A100000F066F8064376003549E068C8608020BB
:108A2000054202D06068886002E031496068C86031
:108A30006D002F49E06888600120205600F050F852
:108A4000064376002A49E068C8608020054202D0CB
:108A50006068886002E026496068C8606D0024494B
:108A6000E06888600120205600F03AF8064376005E
:108A70001F49E068C8608020054202D060688860B5
:108A800002E01B496068C8606D001949E0688860B1
:108A90000120205600F024F8064376001449E068CF
:108AA000C8608020054202D06068886002E01049FA
:108AB0006068C8606D000E49E0688860012020563B
:108AC00000F00EF80643304670BD70477047032132
:108AD0000522120707231B02D2188300D1507047CA
:108AE000014603480069C840C007C00F7047000036
:108AF0000005005070B506460C461546294620462E
:108B000000F02CFC70BDF8B559480078002800D161
:108B1000F8BD58480068002801D1012000E000207D
:108B2000054655480068002801D1012000E00020DA
:108B3000064600BF002D14D1684651DF0446052CBF
:108B400001D101250CE0002C06D000BF4BA2692109
:108B5000204600F0ABFB03E04649009809688847CF
:108B600000BF002E1AD14F480088009069464E4839
:108B7000006861DF0446052C01D101260DE0002CC0
:108B800006D000BF3DA28021204600F08FFB04E00C
:108B90004548006838490968884700BF002D02D061
:108BA000002E00D000E0C5E700BF00BFB0E7FFB572
:108BB00081B00C4616461F46002C02D1072005B096
:108BC000F0BD20468107890F01D1012100E000217D
:108BD000002901D10720F2E73348046031480680BC
:108BE000324807603249019810DF0546002D01D058
:108BF0002846E4E701201E490870162026DFDEE73C
:108C000010B511DF0446002C01D0012000E0002047
:108C100017490870204610BD0146002901D10E20D9
:108C20007047154801600020FAE70146002901D18C
:108C30000E2070470F4801600020FAE770B51B480E
:108C40000068002811D0194800688047044600BF1A
:108C50002546002D07D000BF08A2FF213431284649
:108C600000F024FB00BF00BF01E0FFF74CFF70BD28
:108C700098200020AC200020A82000206E5246350D
:108C8000313832322F6E6F726469632F736F66747E
:108C90006465766963655F68616E646C65722E6396
:108CA00070700000A4200020A02000209C20002044
:108CB000F58A01003EB50020019002903224A00008
:108CC000052101F0D3FB81B268468180FF24F53491
:108CD000A000052101F0CAFB81B26846C1800021D5
:108CE0000181FF219131418100BF00780109090113
:108CF000491C009168460078F021884310300090AC
:108D000000BF00BF052213A168467CDF84B2002C9F
:108D100001D020463EBD00BF00BF0120400278DFE9
:108D200084B2002C01D02046F4E700BF00BF01A8A8
:108D30007ADF84B2002C01D02046EBE700BF00BFF1
:108D4000002077DF84B2002C01D02046E2E700BF8C
:108D50000020DFE76E5246357800000070B505460A
:108D60000E46002412E021016118E04A8818102202
:108D7000294601F07DFA002807D120012018DB499F
:108D80004018007C3070012070BD641CD848006819
:108D90008442E8D30020F7E770B504460D46D44876
:108DA0000068082800D170BDD14909680A018918F6
:108DB000CE4A88181022214601F0AAFACC48006851
:108DC00001014018C94940180574C9480068401C91
:108DD000C749086000BFE6E770B586B004460020CA
:108DE000019000BF06E00F21091A615C02AA11542C
:108DF000411CC8B21028F6DB00BF002501A902A85B
:108E000063DF0646B54202D0002006B070BD00BF49
:108E100068460079F9E738B504460020009000BFA5
:108E2000608A6946088000BF2078002802D10120AE
:108E3000887017E000BF601C054600A90231FFF7EB
:108E40008DFF00280ED100BF601C0546FFF7C4FF50
:108E50006946887000BF601C0546684681782846D0
:108E6000FFF79AFF009838BD7FB504460D460020F5
:108E700006E00F21091A615C6A461154411CC8B210
:108E80001028F6DB00BF2A466946102064DF86B250
:108E9000002E02D0304604B070BD00BF0020FAE7BB
:108EA000FFB591B00C461D461B9F1A9E13980F905C
:108EB00008A8007FC006C00F04D108A8007F800664
:108EC000C00F26D00020109010A988780621884372
:108ED000801C10A9887000BF10A800780109090142
:108EE000491C10A801700078F0218843103010A9A7
:108EF000087000BF00BF10A8407801090901491C93
:108F000010A841704078F0218843103010A94870B3
:108F100000BF1C2108A801F071FA08A8017F0170A8
:108F2000007FC006C00F04D108A8007F8006C00FD4
:108F300001D010A800E000200D901F98099069460C
:108F40002098088568462199418500200790684649
:108F5000807F082188431C99C900082211400143E1
:108F600068468177807F102188431D99090110226E
:108F70001140014368468177807F06218843811C28
:108F800068468177807F40084000BE4201D00121C1
:108F900000E00021C907C90F08436946887708A97E
:108FA000087F8007C00F09D108A8007FC006C00F46
:108FB00004D108A8007F8006C00F0ED000BF68460D
:108FC000007F01090901491C68460177007FF021F3
:108FD000884310306946087700BF08A8007F000763
:108FE000C00F04D108A8007F4007C00F0ED000BFFB
:108FF0006846407F01090901491C68464177407F66
:10900000F021884310306946487700BF142102A838
:1090100001F0F4F9029407A803906846068287825B
:10902000069500BF02AA08A91E9B1198A2DF80B274
:1090300001900198002802D0019815B0F0BD00BF42
:109040000020FAE7FFB587B00D4616461C46109F74
:10905000002006906846807E06218843811C684671
:109060008176807E40084000BC4201D0012100E0B2
:109070000021C907C90F08436946887600BF6846C2
:10908000007E01090901491C68460176007EF02135
:10909000884310306946087600BF00BF6846407EAE
:1090A00001090901491C68464176407EF021884348
:1090B00010306946487600BF142101A801F09EF9DE
:1090C000019506A80290684684810782059601A949
:1090D000119A0798A3DF80B2009000BF00BF00285C
:1090E00001D00BB0F0BD00BF0020FAE72023002024
:1090F000B020002010B50446022C01D1FFF759FB27
:1091000010BDF0B587B00446208819287ED006DC53
:10911000102809D011282DD0132878D159E03928EA
:1091200076D05528F9D1A2E0A68803F04DF905467E
:10913000314600F00CFB20460E300690A01D059035
:1091400003F042F9054601960598007802900598CB
:10915000401C039006980490022168688843801C94
:109160006860E868002803D0EF6801A80FC8B84716
:1091700000BF7EE0A088069003F026F905467849F6
:1091800000F0E5FAA079132806D0162802D03B2873
:1091900006D103E0162605E0132603E03B2601E096
:1091A000A67900BF00BF03F00FF90546069F05969C
:1091B00002216868884368602869002803D02A690A
:1091C0003846059990472846143003F0B6F800BF9A
:1091D0004FE00020059006901E2168468182807D28
:1091E00041084900491C68468175807D02218843F9
:1091F000014668468175807D1C21884301460C31FB
:1092000068468175807D2021884302E019E02FE0C7
:109210002CE00146684681750721C1751021017651
:1092200000BF03F0D1F8074600F093FA064605AAFE
:1092300000217FDF85B2002D01D007B0F0BD00BF57
:1092400017E0A079002810D103F0BEF805460126EA
:10925000012E08D16868B0436860A868002801D072
:10926000A868804700BF00BF00BF02E000BF00E069
:1092700000BF00BF3B480078C007C00F0FD139487E
:1092800003F03FFA00280AD0374802F0F1FC064606
:10929000364A374903F0FEF93248C046C046324DDF
:1092A0002146284600F013FC00BFC6E710B50B4668
:1092B00000BF81B2002900D010BD00BF00BFBFF3C6
:1092C0004F8F2C492C4CE160BFF34F8F00BF00BF84
:1092D000FEE7FEB5002600BF0023502227490820E4
:1092E000FFF765FC044600BF2546002D06D000BFF1
:1092F00023A24B212846FFF7D9FF00BF00BF00BFC4
:1093000025480068029002A860DF002801D00720ED
:10931000FEBD684671DF002801D00720F8E76946E6
:10932000002070DF002801D00720F1E700BF1B48B4
:10933000FFF772FC84B2002C01D02046E8E700BFA2
:1093400000BF1748FFF771FC84B2002C01D0204603
:10935000DEE700BFFFF7AEFC0020D9E700BF704793
:10936000FFFF0000AC210020C825002000600100A4
:10937000E9BC01000400FA0500ED00E0A82300208C
:109380006E524635313832322F62746C652F6274FA
:109390006C652E63707000007CE601000391010093
:1093A000F5900100364870473649374901607047EB
:1093B000704770B504462046FFF7FAFF054603F0F4
:1093C0003FF970BD3EB5044630480078002817D1FB
:1093D00001A866DF00280DD1684600890090684624
:1093E00003792BA20A212C4800F0BAFE012027495C
:1093F000087004E00A2229A1274801F001F800BF03
:1094000025483EBD70B506460C46204677DF050070
:1094100008D0072D03D0112D02D1042070BD00BF4C
:109420000320FBE70020F9E710B50446FFF751FFE2
:109430002068416920468847002010BD10B50446C9
:10944000FFF7DEFB002800D110BD0420FCE710B5BB
:1094500004461448FCF792FE1348FCF78FFE0020E8
:1094600010BD10B5044640DF10BD10B50448FFF72D
:109470009BFF04460D4A0E4903F00CF910BD000095
:10948000B82000200CEA0100C8EA0100B420002046
:1094900025752E2575000000F8230020756E6B6E73
:1094A0006F776E0020A1070040420F0000600100AE
:1094B000B1930100FEB50C461546032C01DD0320D7
:1094C000FEBD6846047006222946401C00F020FFBD
:1094D00000BF00266946002070DF0746BE4201D06B
:1094E0000320EDE700BF0020EAE77CB506460C4606
:1094F0001546684671DF002801D003207CBD002C92
:1095000002D0684600782070002D05D0062200A900
:109510000131284600F0FCFE0020EFE7FEB50C46C6
:109520001546204600F00CFD1F2801DD0120FEBD80
:10953000204600F005FD002801D10320F7E700BF19
:10954000284600F0FDFC0646284600F0F0FC0746E1
:10955000204600F0F5FC0190204600F0E8FC334680
:109560003A460090019972DF002801D00320DEE71F
:1095700000BF00BF204600F0E7FC064678DF002869
:1095800001D00320D3E700BF0020D0E730B585B07D
:1095900005460C46204603F041F8012802D102207E
:1095A00005B030BD204603F039F803280DD1204620
:1095B00003F031F8A02806D3204603F02CF801214F
:1095C000890388420FD90320EAE7204603F023F8F5
:1095D000202806D3204603F01EF801218903884283
:1095E00001D90320DCE7204603F018F8012805D153
:1095F00000BF2089002801D00320D1E7204603F0D6
:109600000DF8012806D000BF20896949884201D998
:109610000320C5E71421684600F0F0FE204602F062
:10962000FDFF694608700020019000216846017224
:1096300000200390204602F0EEFF014668460182BA
:1096400000BF20896946488200BF684673DF002852
:1096500001D00320A4E700BF686840084000401C18
:10966000686000209CE710B5044600BF74DF002846
:1096700001D0032010BD00BF60684008400060605A
:109680000020F7E7F8B504460D4660684008400042
:109690006060022160688843606013200090132D91
:1096A00002D03B2D06D102E01320009002E03B20C7
:1096B000009000BF00BF00BF0026A08C009976DF9D
:1096C0000746BE4201D00320F8BD00BF0020FBE7E3
:1096D000F8B506460C4600BF684600780109090146
:1096E000491C009168460078F021884310300090B2
:1096F00000BF204600F0EAFD85B22A4621466846B2
:109700007CDF002800D1F8BD0320FCE770B50646D9
:109710000C461546294620467DDF002800D170BD45
:109720000320FCE770B505460C46204678DF00288C
:1097300000D170BD0320FCE770B505460C462046FD
:1097400079DF002801D0002070BD0320FCE7818470
:1097500070470146888C7047F8B507460C4600BF35
:10976000002520467BDF0646B54201D00320F8BD28
:1097700000BF0020FBE7F8B507460C4600BF0025F8
:1097800020467ADF0646B54201D00320F8BD00BF6F
:109790000020FBE7F8B507460C461546294620464B
:1097A00075DF0646002E00D1F8BD0320FCE700005F
:1097B000FF3F0000F0B595B005460E4600BF00BF64
:1097C00034462046FFF727FB149000BF13AA14A9C4
:1097D0000120A0DF002802D0032015B0F0BD00BF9B
:1097E00010A98889B08300BF00201290CDE01298A4
:1097F000317D814201DC002102E08200B16989589B
:109800000C4600BF00BF00BF606900280BD100BF3D
:1098100000BF00BF208B002805D1204602F0E6FEE5
:10982000022800D1ADE000BF00BF00BF00BF274647
:109830003846FFF7F0FA149000BF00BF608E10901A
:10984000208E0F90E06A0E90204602F0E0FE0D9010
:10985000204602F0D8FE0C9000BF00BF608B0B903A
:1098600000BF00BF208B0A9000BF00BF6069099055
:10987000204602F0BBFE08906B79DB002F46803754
:10988000DB190E9A0F991098049305920691079090
:109890000B9B0A9A0C990D980193009202910390E8
:1098A00014A90020099B089AFFF7FAFA002801D0B2
:1098B000032092E700BF687911906979481C6871AC
:1098C000890028462030445000BF00BF2746384654
:1098D000119901F06DFF002010904BE02046109987
:1098E0002822125C8A4201DC002202E08B00426ADC
:1098F000D258174600BF00BF38460E97FFF78BFAC5
:10990000149000BF00BF788B0E90388B0D90786953
:109910000C90FF20A130405D41002846FF30A3306D
:1099200008180E990091019014A900200D9B0C9A23
:10993000FFF788FB002801D003204EE700BFFF207F
:10994000A130405D0F90FF20A130405DFF21A1318B
:10995000495D491CFF22A132515581002846FF3044
:109960004130475038460F9901F022FF1098401CB3
:10997000C0B2109000BF2820005D10998842ADDC75
:1099800000BF1298401CC0B2129000BF307D1299E7
:10999000884200DD2BE72879401C287100201CE755
:1099A000F8B504460D4616461F4600BFEA0021469C
:1099B0008031885A33463A460021A5DF002801D07D
:1099C0000320F8BD00BF0020FBE7FFB587B00446C9
:1099D0000D46174602F0F8FC0646FFF7BAFE069061
:1099E0001098002813D000BF0026EA0021468031DD
:1099F000885A3B460AAA0021A4DF059005988642B2
:109A000002D003200BB0F0BD00BF0020FAE7AA008F
:109A100021462031885802F0E9FD3021084240D02B
:109A2000C449069888423CD0E90020468030405A1C
:109A300069460881AA0021462031885802F0D6FDE7
:109A40001021084201D0012100E002216846817204
:109A50000021818105970AA8049002A90698A6DF33
:109A600086B2002E1CD0082E1AD0B348864217D0DA
:109A7000112E15D0B148864212D000BF00200190AF
:109A8000EA0021468031885A3B460AAA0021A4DF19
:109A9000009000990198884201D00320B2E700BFEE
:109AA00010E000BF0026EA0021468031885A3B467C
:109AB0000AAA0021A4DF05900598864201D0032060
:109AC000A0E700BF00209DE7014600207047F3B5E6
:109AD0008BB005460C98041D0C980088512862D064
:109AE00004DC012850D050286ED104E0522855D013
:109AF000532869D144E060880A9000263BE0B20018
:109B000029462031885802F071FD3021084230D0BA
:109B1000F10028468030081881880A98814228D1AF
:109B2000607F0002217F08430990B200294620315E
:109B3000885802F05BFD2021084203D002210998D9
:109B400008420CD1B20029462031885802F04EFD5F
:109B50001021084205D00998C007C00F01D0032783
:109B600000E0042732463946284601F0FFFD0DB0DB
:109B7000F0BD701CC6B26879B042C0DC022724E098
:109B8000052760880A9020E00C98067AA8680028CB
:109B900002D03046A968884700BFE8E72088002245
:109BA0001146A9DFE3E7A078012802D0022808D1F6
:109BB00003E00627A0880A9004E00727A0880A90FF
:109BC00000E0D4E700BF00E0D1E700BF0026AAE034
:109BD000F10028468030415A0A9881427ED1022FF6
:109BE00004D0062F5FD0072F79D122E06846868304
:109BF00021798177218B0184618B418420461C303F
:109C0000099007A8069000BF2869002801D001200C
:109C100000E0002000280AD0069805902869002856
:109C200003D02869059903F05DFC00BF00BF00BFA9
:109C300076E0002006900790089009906846068319
:109C4000618B4183A18B818320461E3008903C4864
:109C500001460EC9C0680493039202910590B100B9
:109C6000284620304058009006A80190009802F045
:109C7000CEFC002801D1012009E0012101980173E7
:109C800000985830019903F00FFC0198007B0028E0
:109C900001D0002001E0FF2004306946888120883F
:109CA00002A9A8DF3CE000200890099068460684DD
:109CB000218B41842248103001460EC9C0680693AA
:109CC000059204910790B100284620304058029038
:109CD00008A80390029802F096FC01E021E019E048
:109CE000002801D1012009E00121039801710298A7
:109CF0003830039903F0B8FB03980079002801D0AD
:109D0000002001E0FF20033069468882208804A9F2
:109D1000A8DF05E032463946284601F027FD00BF9E
:109D200000BF701CC6B26879B04200DD50E700BFCA
:109D30001DE70000FFFF00000330000001340000B9
:109D400080E6010070B504460E4600202070102108
:109D5000601C00F051FB0020608210223146601C24
:109D600000F0D6FAB0780002F1780843608200254E
:109D700011E0022D01D0032D00D10BE0601C405DED
:109D8000002806D0012020700021E17021712046BA
:109D900070BD00BF6D1C102DEBD32046F8E770B5E9
:109DA00004460D46002020701021601C00F024FBAA
:109DB0006582204670BD000030B51D4C0460017105
:109DC000C28003810479012C02D10024C4801BE0ED
:109DD0000479032C0CD1C488A02C01D2A024C48007
:109DE000C4880125AD03AC420ED92C46C4800BE0DB
:109DF000C488202C01D22024C480C4880125AD034E
:109E0000AC4201D92C46C480002B05D00489094DF1
:109E1000AC4201D92C46048130BD704770B5044670
:109E20002046FFF7FAFF054602F00AFC70BD00006D
:109E3000FCE90100FF3F000010B5044644481F2123
:109E40002060201D00F0DAFA0021232001550120B6
:109E50004002A084204610BD704770B504462046DD
:109E6000FFF7FAFF054602F0EBFB70BDF8B50446BC
:109E70000E4617461D462320005D4019801C1F28F2
:109E800001DD0120F8BD23210A5D211D50186A1C47
:109E9000012100F08CFA2320005D401CC1B2232078
:109EA000015523210A5D211D50183246012100F081
:109EB0007EFA2320005D401CC1B2232001552321DE
:109EC0000A5D211D50182A46394600F021FA232048
:109ED000005D4019C1B2232001550020D2E713B51F
:109EE000044668468088A084022301AA19212046DE
:109EF000FFF7BCFF1CBD13B50446012301AA194698
:109F00002046FFF7B3FF1CBD13B50446012301AA89
:109F10000A212046FFF7AAFF1CBD10B504461F21E9
:109F2000201D00F06BFA00212320015510BD0146D1
:109F30002320405C002801DD081D70470020FCE75D
:109F400001462320405C70470146888C7047000022
:109F5000E0E9010070B5044620680268D1688847CE
:109F60000546002D01D0284670BD0020FCE7F8B55D
:109F700004460F4615461E4614223946204600F078
:109F8000C7F92675A5610020A0832046F8BD000012
:109F9000074802680F210A430260064880470648C6
:109FA0000047FEE7FEE7FEE7FEE7FEE7FEE700000C
:109FB000240500408DB60100C160010043435143B8
:109FC00030B55C18010C130C0D4692B25D4380B2A3
:109FD00051432C19054655430A0C09044D19624199
:109FE0005843010C00044019514130BD70B50025A3
:109FF0002C46AD1A9C4112DA00252C462D1A8C41B4
:10A0000002DA00F02BF870BD002440428C4121465A
:10A0100000F024F8002440428C41214619E000253C
:10A020002C462D1A8C410ADA002452429C412346C8
:10A0300000F014F8002440428C41214670BD0024F9
:10A0400052429C414042234600248C41214600F06C
:10A0500005F8002452429C41234670BDFEB50546DA
:10A0600010460C46184373D0AE468C460020AD1AFD
:10A0700001469C4167D36646002701243D46B61A37
:10A080009D4102D313463A462124654676462F0465
:10A09000360C3E432D0CB61A9D4104D3150C1B04FF
:10A0A0002B4312041034654676462F06360A3E438B
:10A0B0002D0AB61A9D4104D3150E1B022B43120222
:10A0C0000834654676462F0736093E432D09B61AF1
:10A0D0009D4104D3150F1B012B431201241D65461E
:10A0E0007646AF07B6083E43AD08B61A9D4104D385
:10A0F000950F9B002B439200A41C65467646EF0704
:10A1000076083E436D08B61A9D411AD392185B41FA
:10A11000641C16E00018764665464941B71A9D4111
:10A120000191009009D36046B11A98418E46844649
:10A13000009801990025401C6941DD0752082A4317
:10A140005B08641EE6D57246634603B0F0BDFFE7C8
:10A1500000200146C046C0462A462346F5E70000D7
:10A160000FB41CB50C0007AA009001D00019401EC6
:10A17000084B7B4469460190069800F07EFF002C56
:10A1800003D06946002000F08BFF1CBC08BC04B063
:10A1900018470000350F0000F8B50E4604460020B1
:10A1A00020622046E1688847002829D0252802D06F
:10A1B0006268A16820E0E168204600278847050022
:10A1C0001ED028464138192802D80127FF02203521
:10A1D0003246204627602946FBF7A2FF002808D018
:10A1E000012804D0F61DF608F6000836D9E7361D1A
:10A1F000D7E762682846A1689047206A401CCFE7ED
:10A20000206AF8BDF7B5002575291068009914A6D5
:10A2100011D0C046C046002802DA404211A608E02C
:10A22000009909688A0701D50FA602E0490704D5FD
:10A230000EA6012501E0C046C046009F0024243739
:10A2400004E000F040FF30313955641C0028F8D19B
:10A250002B4632462146009800F0B1FEFEBD0000BC
:10A26000000000002D0000002B0000002000000076
:10A27000034610B50B439B070FD1042A0DD308C822
:10A2800010C9121FA342F8D018BA21BA884201D9C6
:10A29000012010BD0020C04310BD002A03D0D30709
:10A2A00003D0521C07E0002010BD03780C78401C3E
:10A2B000491C1B1B07D103780C78401C491C1B1B35
:10A2C00001D1921EF1D1184610BD000030B5441CDA
:10A2D00003E00178401C00290DD08107F9D10B4B18
:10A2E000DD0104C8D11A91432940FAD0001B0A06A7
:10A2F00003D0C01E30BD001B30BD0A0401D0801E3B
:10A3000030BD0902FCD0401E30BD0000010101013A
:10A31000F8B5042A2CD3830712D00B78491C03709C
:10A32000401C521E83070BD00B78491C0370401C45
:10A33000521E830704D00B78491C0370401C521E28
:10A340008B079B0F05D0C91ADF002023DE1B08C92D
:10A350000AE0FBF733FFF8BD1D4608C9FD401C4667
:10A36000B4402C4310C0121F042AF5D2F308C91AB6
:10A37000521EF0D40B78491C0370401C521EEAD4C4
:10A380000B78491C0370401C521EE4D409780170FC
:10A39000F8BD134610B50446CAB219461002821819
:10A3A00010048218204600F018F8204610BDD2B2E2
:10A3B00010B513029A1813049A1800F00EF810BD85
:10A3C00001E004C0091F0429FBD28B0701D50280DC
:10A3D000801CC90700D00270704700290BD0C3074A
:10A3E00002D00270401C491E022904D3830702D503
:10A3F0000280801C891EE3E70022EEE70022DFE7EF
:10A40000F8B507460B4639461943890713D1164C50
:10A41000E601042A0FD302CB0D1B8D43354202D136
:10A4200002C0121FF5E7CBB20370521E401C002B76
:10A4300013D0090AF7E7002A14D01978521E5B1CC2
:10A440000170401C002908D0002A0BD01978521E38
:10A450005B1C0170401C0029EDD1002A02D011467E
:10A46000FFF7CAFF3846F8BD0101010100220309C8
:10A470008B4273D3030A8B4258D3030B8B423CD3DA
:10A48000030C8B4221D312E003460B437FD40022FE
:10A4900043088B4274D303098B425FD3030A8B4278
:10A4A00044D3030B8B4228D3030C8B420DD3FF22E2
:10A4B000090212BA030C8B4202D31212090265D0B0
:10A4C000030B8B4219D300E0090AC30B8B4201D363
:10A4D000CB03C01A5241830B8B4201D38B03C01AAA
:10A4E0005241430B8B4201D34B03C01A5241030B21
:10A4F0008B4201D30B03C01A5241C30A8B4201D3D2
:10A50000CB02C01A5241830A8B4201D38B02C01A7C
:10A510005241430A8B4201D34B02C01A5241030AF3
:10A520008B4201D30B02C01A5241CDD2C3098B42D8
:10A5300001D3CB01C01A524183098B4201D38B0155
:10A54000C01A524143098B4201D34B01C01A5241F8
:10A5500003098B4201D30B01C01A5241C3088B423D
:10A5600001D3CB00C01A524183088B4201D38B0028
:10A57000C01A524143088B4201D34B00C01A5241CA
:10A58000411A00D201465241104670475DE0CA0FA1
:10A5900000D04942031000D34042534000229C4661
:10A5A00003098B422DD3030A8B4212D3FC2289016B
:10A5B00012BA030A8B420CD3890192118B4208D341
:10A5C000890192118B4204D389013AD0921100E0A3
:10A5D0008909C3098B4201D3CB01C01A52418309B7
:10A5E0008B4201D38B01C01A524143098B4201D3E4
:10A5F0004B01C01A524103098B4201D30B01C01A0F
:10A600005241C3088B4201D3CB00C01A5241830888
:10A610008B4201D38B00C01A5241D9D243088B42DE
:10A6200001D34B00C01A5241411A00D20146634681
:10A6300052415B10104601D34042002B00D54942E5
:10A64000704763465B1000D3404201B50020C0460E
:10A65000C04602BD704770477047000070B5064C99
:10A660007C44064D7D4403E0206800198047241D8A
:10A67000AC42F9D170BD00003845000038450000FB
:10A68000F0B50C46871A9C410D46861A9D4103D2AF
:10A69000C01BA141D21963410D0D1F0DC64EEC1B0D
:10A6A000AE435BD07F057F0D0026002F50D02D05D7
:10A6B000AC46A943DD020123ED0A1B051D432023FF
:10A6C0001B1B23D41746E740381871412F46E7403B
:10A6D000CC199D402818314661410C0D26D16144AA
:10A6E0009A4012D50023401C594152000DD1400818
:10A6F0004000B24A4B00934207D305204007081898
:10A7000001D5511000E0AE493046F0BD6B00002A83
:10A7100000D001229A18203C1F231B1B01D50023C7
:10A7200002E0E540281871410C0DD8D00124240521
:10A730000919C407CD0740084908E40F28436144BC
:10A74000002CD6D00024401C61419A40D1D1CEE7E4
:10A750006A05520DD9D1C90FC907D5E7974D4E00EB
:10A76000002801D0012400E0002434195F00002AF1
:10A7700001D0012600E00026BE19924FAC420BD852
:10A78000AE4209D8B44205D0BD00AC42BDD010469F
:10A790001946F0BD9942FCD000203946F0BDF0B515
:10A7A0001FB40C460F46811A9F412546861A9D41CB
:10A7B00006D20125ED076F40401ABC4152187B417B
:10A7C000210D1E0D8D1BAC467B4D8D437ED0750536
:10A7D0006D0D7CD00D05AE46AC431B031B0B7A4DB3
:10A7E00052429D41202366469B1B14D31746F740D7
:10A7F000381800260090744160462F460741E4193E
:10A8000000989D402818664116D4714671189A40E8
:10A8100025D5012320E093182A466A415200002BD7
:10A8200000D0521C203E1E239B1B002B61DD3541B6
:10A83000EE1728186641E8D5001876415B1C9A404F
:10A8400000D3401C4B05F3181524E34010D3002B14
:10A8500052D071467118D30FC01802D3491C05B0ED
:10A86000F0BD0123DB079A42F9D140084000F6E72A
:10A8700001225205B21801D1002853D00123CC0A7D
:10A88000DB029943891E002A08D1020C03D0020C76
:10A890000004103902E00246002020390023550B45
:10A8A00005D112020823550B01D152010D23550C7D
:10A8B00001D112011B1DD50C01D192009B1C150D5D
:10A8C00001D152005B1C2025EE1A01E02CE022E0B1
:10A8D0000546F54015439840CA1AE1076918130563
:10A8E000C918002ABBDA032040070818C10FC9079E
:10A8F0000FE071466118B2E7F10740080843711094
:10A9000071444A000CD001235B059A42A7D2C90FBB
:10A91000C9070020A3E74905490D25D1002001E022
:10A920000028F4D100219AE7244D6600002801D0C8
:10A93000012100E0002171185F00002A01D00126EA
:10A9400000E00026BE191F4FA9420FD8AE420DD815
:10A95000B14207D0BD00A94206D01946A802414025
:10A9600010467CE79C4201D0214678E7002039461A
:10A9700075E730B40C465C4004D50124E40763401D
:10A9800030BC0CE730BC7BE630B40C465C4004D5F0
:10A990000124E407634030BC72E630BCFFE630B40B
:10A9A0000124E40761400D465D4001D430BC67E6F8
:10A9B000634030BCF3E60000FF0700000000E0FF4A
:10A9C0000000F07F0000F87F0000F0FFCB02420D96
:10A9D00010B51A430B1504D00124E4072243002BC1
:10A9E00006DB0A4CE31A05D41046D840FF2B00DDE5
:10A9F000002010BD4A00002800D001201018044A91
:10AA00009042F5D8C817C04310BD00001E040000D6
:10AA10000000E0FF1F22030C02D10F22000402D02D
:10AA2000030E03D004E0002001467047083A0002FC
:10AA3000030F01D1121F0001830F01D1921E80006C
:10AA4000002801DB521E4000120551184205C012B9
:10AA5000411810467047C10FC90700D0404201227B
:10AA600092071143D6E701218907D3E7F0B5904C4F
:10AA70000D092646AC46AE430D465D4087B0002E1C
:10AA80007ED01E092746B743FAD067462740ED0F10
:10AA90003D43264075D024012142FBD07419FF2587
:10AAA000AD04641B0494CC02D90201231B05C90A1E
:10AAB0001943E40A1C430F012401030F110F1C4327
:10AAC0000F430501A10B88032D0916018443A80B30
:10AAD00082039543BB0B9A0397433609BC46B20BDE
:10AAE0009703BE430746574303972F467743029683
:10AAF000BE46029F4619D71906967E430597039FC7
:10AB0000F71B7646BE1B77463F0100970196039FD1
:10AB1000B60BF619B646019E009FB604BF1902D3C4
:10AB20007646761CB64676467600002F01D0012781
:10AB30003E4367467D43AE46029F25467D430095D2
:10AB40006D00AE1975466D00AF1965465D19069E1C
:10AB500003956E437546751BAE460D19059E02950D
:10AB60006E43009D5843761B75462D1A4A43964600
:10AB7000B21A00920195FA0606D07D09012201E081
:10AB800076E072E0154300E07D09020A0006002726
:10AB900045197A417646300A360676195041019AAF
:10ABA000950D9202961945410098820D80028019F8
:10ABB0006A41594363465C43039D029B6B435B1AA6
:10ABC0001E1BB30EB601B6187B410A0B0905891985
:10ABD0005A41230A240624184B418B4200D2521CAE
:10ABE00001204002824203D315210226F64302E0EF
:10ABF00014210326F6432020451AAA401F46AF40E1
:10AC0000CB402046C8400499134309147118090524
:10AC10005A1804993843C9075140AC4009D0012360
:10AC20009C4006D30023401C5941002C01D1400810
:10AC30004000204B002A03DB1A4201D08B4312D183
:10AC4000012204989206904207DB0520400709186C
:10AC500019480143C012414004E00320400708188E
:10AC6000C10FC907002007B0F0BD0020E907FAE7CF
:10AC700006180C464C4111487642A04114D3941852
:10AC80001A465A410D48644290410DD301204900B3
:10AC90004005814208D35900814205D3E90F054A96
:10ACA000C90700201143DEE700200549DBE700006B
:10ACB0000000FF070000F07FFFFFFF7F0000E0FFC4
:10ACC0000000F87F70B5FF242404C609FF25264044
:10ACD00001352E43C209CB090546224023404D4091
:10ACE000002A6BD0002B69D0A24267D0A34265D066
:10ACF000002D00DA32460124E405214320430902F5
:10AD00000002090AD21A000A4B0C7F24E31A434CB2
:10AD10007C44E35C7D242404121914145B00A21803
:10AD2000884201D3521C00E0400049420C465C437B
:10AD300024115C43DB016415E318040A5C43C5027B
:10AD4000200D0C4644436419250A5D432303EC0C93
:10AD50000D46654300030019EB184C42A34201D392
:10AD60005B18401CD4052018002B07D05B00C918C5
:10AD700004D3401C002901D1400840003F21890430
:10AD80008A4209D3002A08DC1106090F04D00321E6
:10AD900049074018C00FC00770BD012241001206CC
:10ADA00089187F2252069142F6D2052149074018A0
:10ADB00001D5901070BDFF20C00570BD002D00DAD8
:10ADC0003246174EA24207D2A34205D21802000E05
:10ADD00017D0E80FC00770BDFF2443002406A3422C
:10ADE00016D84900A14213D8A34201D1A1420FD0E5
:10ADF000A14201D1002101E041004908D0050843EA
:10AE000070BD1002000E03D0FF200243D00570BDBC
:10AE1000304670BD48404140484053E7463C000042
:10AE20000000C07F10B502469E240002D115A30782
:10AE3000002902D01843002904DB611A00290CDD27
:10AE4000C84010BD0906090E01D140004008611A32
:10AE500003D4C84040420028F3DDFF21500009061A
:10AE6000884201D9002010BDD017C043584010BD02
:10AE700001460002CA1504D00123DB071843002A4B
:10AE800009DB9E239A1A01D4D0407047FF22480064
:10AE90001206904201D900207047C817C04370477E
:10AEA0001F22030C02D10F2200041CD0030E01D17B
:10AEB000083A0002030F01D1121F0001830F01D1D4
:10AEC000921E8000002801DB521E4000D20551185E
:10AED000021251181922904004D3491C002801D1B4
:10AEE0004908490008467047C10FC90700D04042D1
:10AEF000012292071143D3E701218907D0E700001F
:10AF000000487047B825002000487047BC25002045
:10AF100070B5064600F022F9056830460B30C408CB
:10AF2000E400B44201D8002070BD68682A460028B9
:10AF300018D00168A14211D30B46214608318B423B
:10AF400008D3436801194B6003681B1B0B605160F9
:10AF5000046001E041685160001D70BD0246406818
:10AF60000028E6D12146284600F000F90028DCD16F
:10AF700070BD70B50446051F00F0F0F80068002CA5
:10AF80001AD0446801E020466468002C01D0AC422D
:10AF9000F9D301680A18AA4204D12A68054689181B
:10AFA000016000E0456028684119A14205D161684F
:10AFB000696021684018286070BD6C6070BDFFB585
:10AFC00004460D4681B0243000902168880604D5DF
:10AFD0001022E0699143216000E00120A84201DDD8
:10AFE000471B00E000270498A1697A191018081A75
:10AFF000A0612078C00602D42046C046C046002684
:10B0000008E003986268A168805D9047206A401C50
:10B01000761C206204988642F3DB2078C0060AD5AD
:10B020002046C046C04606E06268A16830209047CE
:10B03000206A401C206238467F1E0028F4DC07E0AE
:10B0400000986268A168405D9047206A401C2062B9
:10B0500028466D1E0028F3DC2046C046C0462078F6
:10B06000000602D5022005B0F0BD0120FBE700007C
:10B0700001694A1C02610878704700B58FB00291DF
:10B0800000210591054901937944039111460490EB
:10B090006846FFF781F80FB000BD0000E5FFFFFF35
:10B0A0000A681070521C0A6070474B680A689A421E
:10B0B00002D2531C0B601070704710B500F0A6F858
:10B0C00000F09DF810BD01468008081A020910180A
:10B0D000020A1018020C1018C00882001218520040
:10B0E000891A01E00A39401C0A29FBD2704710B5C1
:10B0F00000F0A4F810BD000010B5FF231B064400AB
:10B100009C421DD84C009C421AD80346124A0B435D
:10B1100007D4401A02D3EFF3008010BDEFF3008094
:10B1200010BD081A06D2EFF3008001219043C90731
:10B13000084302E0EFF30080904380F3008810BDE5
:10B140000D231B041A4204D01146002000F084F89D
:10B1500010BD00F099F810BD000000900048704745
:10B16000C0250020704770477047704738B50446C7
:10B170000A4600206946C046C046002805D002465F
:10B180002046009900F08EF8012038BD10B501204E
:10B1900000F0C4F810BDF8B5C046C0460546002012
:10B1A0000C461020C0460646A819A0420DD93246CA
:10B1B00069460020C046C046070001D100F0AEF845
:10B1C0000098A04200D00546C419FFF7C7FFF61D3E
:10B1D00007460560F008C0004619284600F008F848
:10B1E000B44204D031463868A21B00F05BF8F8BDC9
:10B1F000002101604160806070471020704710B5E9
:10B20000002801D000F048F810BD000010B5002162
:10B2100002A000F069F8012010BD0000534947501A
:10B2200056464E3A20507572652076697274756183
:10B230006C20666E2063616C6C65640010B500F074
:10B2400076F80169002903D000220261884701E0F5
:10B250008068804700F040F8CA0210D54A03520FB8
:10B2600004D0C803C043012188407047054AEFF36A
:10B27000008108010009104380F300887047002016
:10B28000704700000000003010B5024800F076F86A
:10B2900010BD00000000C07F01491820ABBEFEE7D2
:10B2A0002600020010B50346406801E003464068EE
:10B2B000002801D08842F9D31868C3188B4206D001
:10B2C000CB1CD808C000001D411A521A0146081DA7
:10B2D0000A60FFF74EFE10BD002000F089F8C0465E
:10B2E000C0460120FFF7D8FF70B505460C460A207E
:10B2F00000E06D1C00F071F8002D06D028780028C1
:10B30000F7D102E0641C00F068F8002C02D020782D
:10B310000028F7D10A2000F060F870BD10B500F0E9
:10B320006DF8FFF76CFF10BD10B5FFF7D5FF70B5D6
:10B3300000F05AF804680546002C15D12020FFF7CC
:10B34000E7FD040012D02C600949616000202060F4
:10B350000849A1602073206107496061A06100294C
:10B3600001D000F073F8E061204670BDFFF7B4FF34
:10B370000000000029B301000000000010B50C46D9
:10B380001107090F092904D00A290AD008290CD16C
:10B3900004E011460820FFF75FFF06E0510606D5DE
:10B3A00001E0510601D50120C007214610BDD1069C
:10B3B00007D501010909CC084907000E000604431E
:10B3C00009E0410F20024907000A0143200E000650
:10B3D0001D22D14101430846E7E708B569460870D8
:10B3E0000320ABBE08BD704700487047C42500204D
:10B3F00010B500F04DF8FFF702FF10BD10B50128A1
:10B4000005D0002103A0FFF76FFF012010BD09A1A7
:10B41000F8E7000053494752544D454D3A204F75C7
:10B4200074206F662068656170206D656D6F72793C
:10B43000000000003A2048656170206D656D6F72F4
:10B440007920636F727275707465640010B588201E
:10B45000FFF75EFD002801D00021017010BD80299A
:10B4600004D8002802D00178002901D000207047BC
:10B470000121017008307047002803D002460832CD
:10B48000914201D0002070470021017070470000F8
:10B4900010B5002102A0FFF727FF012010BD00001A
:10B4A000534947414252543A2041626E6F726D6176
:10B4B0006C207465726D696E6174696F6E00000056
:10B4C00030B58C180278401C13071B0F01D103788C
:10B4D000401C120906D10278401C03E00578401C8C
:10B4E0000D70491C5B1EF9D101E00B70491C521E06
:10B4F000FBD1A142E6D3002030BD10B501F075FCB0
:10B5000001F072FCFAF776FE10BD0000F8B52A488B
:10B51000006900902948C16B00294CD0284949682E
:10B52000002948DA0021C163264E274D0C46A700AA
:10B53000F05900283BD02549095D002920D0009909
:10B54000E140C9070ED079190968090CC943890778
:10B5500016D01F4A1168E140C90711D09268012135
:10B5600090470DE079190968090CC943890707D18B
:10B57000174A5168E140C90702D0926802219047FA
:10B58000781901688903890F11D002680321090421
:10B590008A430260009AE240D20703D002680A435D
:10B5A000026004E001680122520411430160641C3E
:10B5B000E4B21F2CBBD3F8BD000500504061004031
:10B5C0000063004004240020000700508024002075
:10B5D0008C210020F8B52548002101604160816080
:10B5E000C160234A11605068224E002808D0B36A17
:10B5F000F06A01252D065B1900246041B362F062F8
:10B60000002050603469601C2FD01B480027406820
:10B610007169401A05022D0A24204443B06822189B
:10B620005068A8420ED8B3692D1AC719146A002BA6
:10B6300003D0D1699069984702E09169D069884741
:10B64000601CE9D1B178F078814206D1401CC0B2CB
:10B65000F070022801D10020F07000060749800D2B
:10B660000F500120064900050860F8BD4011014057
:10B6700000110140C020002000150140DC20002006
:10B6800000E200E010B501F0D5FB10BD30B4214858
:10B69000214A018CCBB20121012B17D1848C2407C4
:10B6A00014D1048D2406250F03D1858D2D062D0F71
:10B6B0000FD0240F012C03D1858D2D062D0F08D01E
:10B6C000032C03D1848D2406240F02D0012B07D034
:10B6D00014E0124B53600123114CDB03A36102E021
:10B6E000838C1B070AD1038D1B061B0F042B05D16E
:10B6F000808D0006000F01D10A48816091610A48DF
:10B70000002242608205916041680029FCD030BC73
:10B7100070470000C00F00F000050040DFFF07C0C9
:10B72000006C004000060040000100400C484168E9
:10B730000A060C4904D5CA69002A01D0012106E095
:10B74000406840070AD58868002807D000210648CD
:10B750000068002802D0044A926810477047000031
:10B760000023004000210040F020002070B5044676
:10B770000D461646032D04D0042D09D0052D15D1F4
:10B780000DE06069002802D03046616988470DE00D
:10B79000A069002802D03046A169884706E0E06928
:10B7A000002802D03046E169884700BF00BF70BD65
:10B7B000818370477FB50446204903C903910290F5
:10B7C0002046083000BF064600F00DFF0546002069
:10B7D0000090082302AA2946206800F0C9FE2046EE
:10B7E000803000BF064600F0FEFE054600200090B7
:10B7F000082302AA2946206800F0BAFE2046F83045
:10B8000000BF064600F0EFFE05460020009008232A
:10B8100002AA2946206800F0ABFE2046FF307130B6
:10B8200000BF064600F0DFFE054600200090012321
:10B8300002AA2946206800F09BFE7FBD40E7010078
:10B840007FB582B004462046F83000F0D3FE0546AE
:10B8500000200090082304AA2946206800F088FEF2
:10B8600006B070BD7FB582B004462046803000F03F
:10B87000C1FE054600200090082304AA294620683E
:10B8800000F076FE06B070BD7FB504460020029041
:10B890000390042001902046FF30E93000F0AAFE1A
:10B8A000054601AB02AA2946206800F04FFE029827
:10B8B00004B070BD7FB504460021029103910820B9
:10B8C00001902046F83000F095FE054601AB02AA33
:10B8D0002946206800F03AFE0399029804B070BD32
:10B8E0007FB5044600210291039108200190204673
:10B8F000803000F07FFE054601AB02AA2946206891
:10B9000000F024FE0399029804B070BDF0B5ADB00C
:10B9100004460D46164625606660514928A8FEF784
:10B9200011FA07460C204FA2002305900821009130
:10B93000039302930492019106900B464D4A3946B7
:10B940002046083000F0E0F90446083C4A4923A8A4
:10B95000FEF7F8F90746142048A2002305900A21B3
:10B9600003930492069008220293009201911346D9
:10B97000404A39462046803000F0C6F90446803CF3
:10B9800044491EA8FEF7DEF90746152042A200230F
:10B9900005900A21039304920690082202930092D4
:10B9A00001911346334A39462046F83000F0ACF98D
:10B9B0000446F83C3E4919A8FEF7C4F9074615208D
:10B9C0003CA20023059018210393049206900122C3
:10B9D0000293009201911346264A39462046FF30D1
:10B9E000713000F091F90446FF3C713C374914A8CE
:10B9F000FEF7A8F90746122035A2002305900A2178
:10BA0000039304920690042202930092019113463C
:10BA1000344A39462046FF30E93000F075F90446D3
:10BA2000FF3CE93C204608300F9078301090783089
:10BA3000119078301290783013902B4914A8FEF7AB
:10BA400081F9074605230FAA394607A8FEF78FFAA2
:10BA500007A9284600F002FD20462DB0F0BD0000E9
:10BA6000F0E6010053796E632054696D65204D73D3
:10BA70000000000040E7010000E701004F6C646532
:10BA800073742053616D706C652054696D65204D31
:10BA90007300000010E701004E6577657374205352
:10BAA000616D706C652054696D65204D73000000F8
:10BAB00020E701005374617274204C6F67676572F0
:10BAC00020446F776E6C6F616400000030E7010006
:10BAD0004C6F6767657220496E74657276616C2081
